S01700006B65797061645F377365676D656E742E7372656306
S11300000C942A000C9434000C9434000C943400A6
S11300100C9434000C9434000C9434000C9434008C
S11300200C9434000C9434000C9434000C9434007C
S11300300C9434000C9434000C9434000C9434006C
S11300400C9434000C9434000C9434000C9434005C
S11300500C94340011241FBECFE5D8E0DEBFCDBF21
S11300600E9436000C9428010C940000CF93DF9377
S1130070CDB7DEB72D970FB6F894DEBF0FBECDBF58
S1130080CE010A960E94BD00CE010D960E94C300C7
S1130090CE0101960E94F50021E030E040E066E3E5
S11300A070E0CE010A960E946B0064E0CE010D96CA
S11300B00E94BE0020E335E7AE01435F5F4FBE01FF
S11300C0665F7F4FCE0101960E94C400CE01019667
S11300D00E94D800FBCFDB01FC0171836083E1E067
S11300E0F0E0BF0102C0660F771F4A95E2F7AB014B
S11300F0FC01628311968C911197232B11F0482BEC
S113010002C04095482311964C930895DC01ED916B
S1130110FC911197928112968C91892B8283089578
S1130120FC01A081B1819C912281022E000C330B31
S1130130892F90E02823392381E0232B09F480E0E0
S11301400895DC01ED91FC911197928112968C91A6
S11301508095892382830895CF93DF93EC010E94D5
S11301609000882329F0CE01DF91CF910C94A10057
S1130170CE01DF91CF910C94860008956EBD089551
S11301808CB59DB5089508950F931F93CF93DF9376
S11301908901EC0169937993BA01CE010E94F800B8
S11301A0B801CE01DF91CF911F910F910C940901F9
S11301B00F931F93CF93DF93EC018C010E5F1F4FBE
S11301C0C8010E940E01882359F0C8010E94FC0056
S11301D088819981DF91CF911F910F910C94AC008C
S11301E0DF91CF911F910F91089502960C942701EE
S11301F0FC01718360830895CF93DF93EC018881C0
S113020099810E94C0009D838C831E82DF91CF91CF
S11302100895FC01738362830C94FC00CF93DF93F5
S1130220EC018E8181110FC0888199810E94C000E8
S11302302C813D81821B930B2A813B81821793077A
S113024010F081E08E838E81DF91CF91089508951F
S1070250F894FFCF4C
S9030000FC
