S01700006B65797061645F377365676D656E742E7372656306
S11300000C942A000C943F000C943F000C943F0085
S11300100C943F000C943F000C943F000C943F0060
S11300200C943F000C943F000C943F000C943F0050
S11300300C943F000C943F000C943F000C943F0040
S11300400C943F000C943F000C943F000C943F0030
S11300500C943F0011241FBECFE5D8E0DEBFCDBF16
S113006010E0A0E6B0E0EAE3F7E002C005900D92EC
S1130070A837B107D9F70E9441000C949B030C9454
S11300800000CF93DF93CDB7DEB7C355D1090FB6C8
S1130090F894DEBF0FBECDBFCE018E5B9F4F0E9492
S11300A00A02CE01825B9F4F0E948B01CE018D5AC2
S11300B09F4F0E94D80121E030E040E066E370E009
S11300C0CE01825B9F4F0E94390164E0CE018D5ABC
S11300D09F4F0E94D30120E335E7AE014D5A5F4F95
S11300E0BE01625B7F4FCE018E5B9F4F0E94D901A0
S11300F0CE0101960E94DE02CE018D960E948B01F4
S1130100CE01C0960E948B01CE01C3960E948B0142
S1130110CE01C6960E948B01CE0181960E948B016E
S1130120CE0184960E948B01CE0187960E948B019A
S1130130CE018A960E948B0121E030E040E069E321
S113014070E0CE018D960E94390121E030E041E05B
S113015069E370E0CE01C0960E94390121E030E0ED
S113016042E069E370E0CE01C3960E94390121E0C8
S113017030E043E069E370E0CE01C6960E943901A5
S113018020E030E040E063E370E0CE0181960E941D
S1130190390120E030E041E063E370E0CE01849671
S11301A00E94390120E030E042E063E370E0CE01D8
S11301B087960E94390120E030E043E063E370E079
S11301C0CE018A960E943901AE014F5D5F4FBE0198
S11301D0635D7F4FCE0101960E940D02CE01C99648
S11301E00E945A03CE018F5A9F4F0E94D201CE0122
S11301F0855B9F4F0E948B0121E030E045E066E380
S113020070E0CE01855B9F4F0E94390121E030E010
S113021047E066E370E0CE01855B9F4F0E943901A1
S113022021E030E044E066E370E0CE01855B9F4F5F
S11302300E94390100E020E044E0BE01655B7F4F8D
S1130240CE018F5A9F4F0E948C01AE014F5A5F4FCF
S1130250BE016F5F7F4FCE01C9960E94DF02CE01BF
S11302608E5B9F4F0E94ED01CE01C9960E9405034B
S1130270F6CFDB01FC0171836083E1E0F0E0BF01B4
S113028002C0660F771F4A95E2F7AB01FC01628357
S113029011968C911197232B11F0482B02C0409595
S11302A0482311964C930895DC01ED91FC9111972C
S11302B0928112968C91892B82830895FC01A081EE
S11302C0B1819C912281022E000C330B892F90E086
S11302D02823392381E0232B09F480E00895DC01ED
S11302E0ED91FC911197928112968C9180958923BE
S11302F082830895CF93DF93EC010E945E018823EB
S113030029F0CE01DF91CF910C946F01CE01DF91E2
S1130310CF910C94540108950F931F93CF93C42F3E
S1130320122FFC0171836083CB010E94540113706E
S1130330F4E01F9F9001112480E2089F80011124A2
S1130340022B8C2F8370082B0DB98EB1C695C695E0
S1130350C82BCEB96C9A6E9ACF911F910F910895C4
S1130360FF920F931F93CF93DF93EC01162FF72E79
S1130370042F888199810E946F01812FE12FFF2D25
S11303809E2F981B901728F491919FB9779BFECFCD
S1130390F7CF88819981DF91CF911F910F91FF90C1
S11303A00C94540108956EBD08958CB59DB50895BF
S11303B008950F931F93CF93DF938901EC01699301
S11303C07993BA01CE010E946403B801CE01DF9192
S11303D0CF911F910F910C9475030F931F93CF939B
S11303E0DF93EC018C010E5F1F4FC8010E947A035A
S11303F0882359F0C8010E94680388819981DF919C
S1130400CF911F910F910C947A01DF91CF911F919D
S11304100F91089502960C949303AF92BF92CF92DA
S1130420DF92EF92FF920F931F93CF93DF93EC0130
S1130430CB018A015E0120E1A20EB11C7B01ECE03C
S1130440EE0EF11C6C01F3E0CF0ED11CF50181938B
S113045091935F010E945401C601CE14DF0491F709
S11304607E01F8E1EF0EF11C68012CE0C20ED11CF4
S1130470580183E0A80EB11CF701019311937F0189
S1130480C8010E9454018501AC14BD0489F787E3B7
S1130490888388E3898389E38A8381E48B8384E383
S11304A08C8385E38D8386E38E8382E48F8381E36B
S11304B0888782E3898783E38A8783E48B878AE258
S11304C08C8780E38D8783E28E8784E48F87DF9136
S11304D0CF911F910F91FF90EF90DF90CF90BF903D
S11304E0AF9008958F929F92AF92BF92CF92DF9276
S11304F0EF92FF920F931F93CF93DF937C016C01D4
S113050020E1C20ED11CC0E0D0E05601F60180818A
S113051091810E946F014701F8E18F0E911C00E068
S113052010E08FE99FE00197F1F700C00000F401AB
S1130530819191914F010E945E0181111FC0FFEFD3
S113054023EC89E0F15020408040E1F700C0000036
S1130550FE013896EE0FFF1FEE0DFF1D8081918185
S11305600E945401CE01880F991F880F991FE7013B
S1130570C80FD91FC00FD11F888113C00F5F1F4F31
S11305800430110571F692E0C90ED11CF501808189
S113059091810E9454012196C430D10509F0B5CF50
S11305A080E0DF91CF911F910F91FF90EF90DF904A
S11305B0CF90BF90AF909F908F90089508950F9320
S11305C01F93CF93DF9300D000D0CDB7DEB78A015D
S11305D0FC01718360835383428344E050E06FEFF6
S11305E070E0CE0101960E94940344E0BE016F5F67
S11305F07F4FC8010E94B0010F900F900F900F9091
S1130600DF91CF911F910F9108950F931F93CF9373
S1130610DF9300D000D0CDB7DEB78C01FC01808120
S113062091810E9472028823E1F1D80114968334E7
S113063001F1F8019681978395819683948195833E
S113064084839E012F5F3F4FA801485F5F4FED9168
S1130650E053E73128F4F0E0E05AFF4F808101C015
S113066080E08095F90181939F01A417B50779F77C
S11306700FC084E0FD0111928A95E9F744E050E04F
S11306806FEF70E0CE0101960E949403F80110868A
S113069044E0BE016F5F7F4FF801828193810E9425
S11306A0B0010F900F900F900F90DF91CF911F9199
S11306B00F910895FC01349624E0DF011D922A95E0
S11306C0E9F7FC0110860895FC01718360830895A5
S11306D0CF93DF93EC01888199810E94D5019D839A
S11306E08C831E82DF91CF910895FC017383628312
S11306F00C946803CF93DF93EC018E8181110FC0BA
S1130700888199810E94D5012C813D81821B930BA4
S11307102A813B818217930710F081E08E838E81BA
S1130720DF91CF9108950895DC0101C06D9341508C
S10D07305040E0F70895F894FFCF5D
S113073A7F60B69ECCDAFA0EFEDE000000000000EE
S10B074A00EEF8F2BC9E8E00E3
S9030000FC
